{
  "_format": "hh-sol-artifact-1",
  "contractName": "Counter",
  "sourceName": "contracts/Counter.sol",
  "abi": [
    {
      "inputs": [
        {
          "internalType": "string",
          "name": "_name",
          "type": "string"
        },
        {
          "internalType": "uint256",
          "name": "_count",
          "type": "uint256"
        }
      ],
      "stateMutability": "nonpayable",
      "type": "constructor"
    },
    {
      "inputs": [],
      "name": "count",
      "outputs": [
        {
          "internalType": "uint256",
          "name": "",
          "type": "uint256"
        }
      ],
      "stateMutability": "view",
      "type": "function"
    },
    {
      "inputs": [],
      "name": "decrement",
      "outputs": [
        {
          "internalType": "uint256",
          "name": "newCount",
          "type": "uint256"
        }
      ],
      "stateMutability": "nonpayable",
      "type": "function"
    },
    {
      "inputs": [],
      "name": "getCount",
      "outputs": [
        {
          "internalType": "uint256",
          "name": "",
          "type": "uint256"
        }
      ],
      "stateMutability": "view",
      "type": "function"
    },
    {
      "inputs": [],
      "name": "getName",
      "outputs": [
        {
          "internalType": "string",
          "name": "",
          "type": "string"
        }
      ],
      "stateMutability": "view",
      "type": "function"
    },
    {
      "inputs": [],
      "name": "increment",
      "outputs": [
        {
          "internalType": "uint256",
          "name": "newCount",
          "type": "uint256"
        }
      ],
      "stateMutability": "nonpayable",
      "type": "function"
    },
    {
      "inputs": [],
      "name": "name",
      "outputs": [
        {
          "internalType": "string",
          "name": "",
          "type": "string"
        }
      ],
      "stateMutability": "view",
      "type": "function"
    },
    {
      "inputs": [
        {
          "internalType": "string",
          "name": "_newName",
          "type": "string"
        }
      ],
      "name": "setName",
      "outputs": [],
      "stateMutability": "nonpayable",
      "type": "function"
    }
  ],
  "bytecode": "0x60806040523480156200001157600080fd5b5060405162000f0a38038062000f0a833981810160405281019062000037919062000267565b81600090816200004891906200050e565b508060018190555033600260006101000a81548173ffffffffffffffffffffffffffffffffffffffff021916908373ffffffffffffffffffffffffffffffffffffffff1602179055505050620005f5565b6000604051905090565b600080fd5b600080fd5b600080fd5b600080fd5b6000601f19601f8301169050919050565b7f4e487b7100000000000000000000000000000000000000000000000000000000600052604160045260246000fd5b6200010282620000b7565b810181811067ffffffffffffffff82111715620001245762000123620000c8565b5b80604052505050565b60006200013962000099565b9050620001478282620000f7565b919050565b600067ffffffffffffffff8211156200016a5762000169620000c8565b5b6200017582620000b7565b9050602081019050919050565b60005b83811015620001a257808201518184015260208101905062000185565b60008484015250505050565b6000620001c5620001bf846200014c565b6200012d565b905082815260208101848484011115620001e457620001e3620000b2565b5b620001f184828562000182565b509392505050565b600082601f830112620002115762000210620000ad565b5b815162000223848260208601620001ae565b91505092915050565b6000819050919050565b62000241816200022c565b81146200024d57600080fd5b50565b600081519050620002618162000236565b92915050565b60008060408385031215620002815762000280620000a3565b5b600083015167ffffffffffffffff811115620002a257620002a1620000a8565b5b620002b085828601620001f9565b9250506020620002c38582860162000250565b9150509250929050565b600081519050919050565b7f4e487b7100000000000000000000000000000000000000000000000000000000600052602260045260246000fd5b600060028204905060018216806200032057607f821691505b602082108103620003365762000335620002d8565b5b50919050565b60008190508160005260206000209050919050565b60006020601f8301049050919050565b600082821b905092915050565b600060088302620003a07fffffffffffffffffffffffffffffffffffffffffffffffffffffffffffffffff8262000361565b620003ac868362000361565b95508019841693508086168417925050509392505050565b6000819050919050565b6000620003ef620003e9620003e3846200022c565b620003c4565b6200022c565b9050919050565b6000819050919050565b6200040b83620003ce565b620004236200041a82620003f6565b8484546200036e565b825550505050565b600090565b6200043a6200042b565b6200044781848462000400565b505050565b5b818110156200046f576200046360008262000430565b6001810190506200044d565b5050565b601f821115620004be5762000488816200033c565b620004938462000351565b81016020851015620004a3578190505b620004bb620004b28562000351565b8301826200044c565b50505b505050565b600082821c905092915050565b6000620004e360001984600802620004c3565b1980831691505092915050565b6000620004fe8383620004d0565b9150826002028217905092915050565b6200051982620002cd565b67ffffffffffffffff811115620005355762000534620000c8565b5b62000541825462000307565b6200054e82828562000473565b600060209050601f83116001811462000586576000841562000571578287015190505b6200057d8582620004f0565b865550620005ed565b601f19841662000596866200033c565b60005b82811015620005c05784890151825560018201915060208501945060208101905062000599565b86831015620005e05784890151620005dc601f891682620004d0565b8355505b6001600288020188555050505b505050505050565b61090580620006056000396000f3fe608060405234801561001057600080fd5b506004361061007d5760003560e01c80632baeceb71161005b5780632baeceb7146100dc578063a87d942c146100fa578063c47f002714610118578063d09de08a146101345761007d565b806306661abd1461008257806306fdde03146100a057806317d7de7c146100be575b600080fd5b61008a610152565b60405161009791906102f2565b60405180910390f35b6100a8610158565b6040516100b5919061039d565b60405180910390f35b6100c66101e6565b6040516100d3919061039d565b60405180910390f35b6100e4610278565b6040516100f191906102f2565b60405180910390f35b61010261029a565b60405161010f91906102f2565b60405180910390f35b610132600480360381019061012d9190610508565b6102a4565b005b61013c6102b7565b60405161014991906102f2565b60405180910390f35b60015481565b6000805461016590610580565b80601f016020809104026020016040519081016040528092919081815260200182805461019190610580565b80156101de5780601f106101b3576101008083540402835291602001916101de565b820191906000526020600020905b8154815290600101906020018083116101c157829003601f168201915b505050505081565b6060600080546101f590610580565b80601f016020809104026020016040519081016040528092919081815260200182805461022190610580565b801561026e5780601f106102435761010080835404028352916020019161026e565b820191906000526020600020905b81548152906001019060200180831161025157829003601f168201915b5050505050905090565b60006001600081548092919061028d906105e0565b9190505550600154905090565b6000600154905090565b80600090816102b391906107b5565b5050565b6000600160008154809291906102cc90610887565b9190505550600154905090565b6000819050919050565b6102ec816102d9565b82525050565b600060208201905061030760008301846102e3565b92915050565b600081519050919050565b600082825260208201905092915050565b60005b8381101561034757808201518184015260208101905061032c565b60008484015250505050565b6000601f19601f8301169050919050565b600061036f8261030d565b6103798185610318565b9350610389818560208601610329565b61039281610353565b840191505092915050565b600060208201905081810360008301526103b78184610364565b905092915050565b6000604051905090565b600080fd5b600080fd5b600080fd5b600080fd5b7f4e487b7100000000000000000000000000000000000000000000000000000000600052604160045260246000fd5b61041582610353565b810181811067ffffffffffffffff82111715610434576104336103dd565b5b80604052505050565b60006104476103bf565b9050610453828261040c565b919050565b600067ffffffffffffffff821115610473576104726103dd565b5b61047c82610353565b9050602081019050919050565b82818337600083830152505050565b60006104ab6104a684610458565b61043d565b9050828152602081018484840111156104c7576104c66103d8565b5b6104d2848285610489565b509392505050565b600082601f8301126104ef576104ee6103d3565b5b81356104ff848260208601610498565b91505092915050565b60006020828403121561051e5761051d6103c9565b5b600082013567ffffffffffffffff81111561053c5761053b6103ce565b5b610548848285016104da565b91505092915050565b7f4e487b7100000000000000000000000000000000000000000000000000000000600052602260045260246000fd5b6000600282049050600182168061059857607f821691505b6020821081036105ab576105aa610551565b5b50919050565b7f4e487b7100000000000000000000000000000000000000000000000000000000600052601160045260246000fd5b60006105eb826102d9565b9150600082036105fe576105fd6105b1565b5b600182039050919050565b60008190508160005260206000209050919050565b60006020601f8301049050919050565b600082821b905092915050565b60006008830261066b7fffffffffffffffffffffffffffffffffffffffffffffffffffffffffffffffff8261062e565b610675868361062e565b95508019841693508086168417925050509392505050565b6000819050919050565b60006106b26106ad6106a8846102d9565b61068d565b6102d9565b9050919050565b6000819050919050565b6106cc83610697565b6106e06106d8826106b9565b84845461063b565b825550505050565b600090565b6106f56106e8565b6107008184846106c3565b505050565b5b81811015610724576107196000826106ed565b600181019050610706565b5050565b601f8211156107695761073a81610609565b6107438461061e565b81016020851015610752578190505b61076661075e8561061e565b830182610705565b50505b505050565b600082821c905092915050565b600061078c6000198460080261076e565b1980831691505092915050565b60006107a5838361077b565b9150826002028217905092915050565b6107be8261030d565b67ffffffffffffffff8111156107d7576107d66103dd565b5b6107e18254610580565b6107ec828285610728565b600060209050601f83116001811461081f576000841561080d578287015190505b6108178582610799565b86555061087f565b601f19841661082d86610609565b60005b8281101561085557848901518255600182019150602085019450602081019050610830565b86831015610872578489015161086e601f89168261077b565b8355505b6001600288020188555050505b505050505050565b6000610892826102d9565b91507fffffffffffffffffffffffffffffffffffffffffffffffffffffffffffffffff82036108c4576108c36105b1565b5b60018201905091905056fea26469706673582212201e5ebc0722e65199a9301147e2870942fe864cbe609e799d55abe916815cfaa164736f6c63430008110033",
  "linkReferences": {},
  "deployedLinkReferences": {}
}